:020000040808EA
:1000000000000220651508084D0E0808530E080868
:10001000590E08085F0E0808650E08080000000069
:10002000000000000000000000000000018A080835
:100030006B0E080800000000518C0808B98C0808F5
:10004000B5150808B5150808B5150808B515080848
:10005000B5150808B5150808B5150808B515080838
:10006000B5150808B5150808B5150808B515080828
:10007000B5150808B5150808B5150808B515080818
:10008000B5150808B5150808B5150808B515080808
:10009000B5150808B5150808B5150808B5150808F8
:1000A000790E08088D0E0808B5150808B51508085A
:1000B000B5150808A10E0808B5150808B5150808F3
:1000C000B5150808B5150808B5150808B5150808C8
:1000D000B5150808B50E0808B5150808B5150808BF
:1000E000B5150808B5150808B5150808B5150808A8
:1000F000B5150808B5150808B5150808B515080898
:10010000B5150808B5150808B5150808B515080887
:10011000B5150808B5150808B5150808B515080877
:10012000B5150808B5150808B5150808B515080867
:10013000B5150808C90E0808B5150808B51508084A
:10014000B5150808B5150808B5150808B515080847
:10015000B5150808B5150808B5150808B515080837
:10016000B5150808B5150808B5150808B515080827
:10017000B5150808B5150808B515080800000000F1
:08018000B5150808B5150808C3
:1001900010B5054C237833B9044B13B10448AFF3C1
:1001A00000800123237010BD980000200000000093
:1001B00008AB090808B5034B1BB103490348AFF36B
:1001C000008008BD000000009C00002008AB09086A
:1001D000034613F8012B002AFBD1181A0138704787
:1001E00001F0FF01102A2BDB10F0070F08D010F8E8
:1001F000013B013A8B422DD010F0070F42B3F6D1EC
:10020000F0B441EA012141EA014122F007047FF004
:1002100000070023F0E80256083C85EA010586EA5B
:10022000010685FA47F5A3FA87F586FA47F6A5FA97
:1002300087F68EB9EED1F0BC01F0FF0102F00702A3
:1002400032B110F8013B013A83EA010313B1F8D14E
:100250000020704701387047002D06BF354603382F
:10026000073815F0010F07D1013015F4807F02BF68
:10027000013015F4C03F0130F0BC0138704700BFB9
:1002800053B94AB9002908BF00281CBF4FF0FF31FD
:100290004FF0FF3000F06EB9ADF1080C6DE904CEFF
:1002A00000F006F8DDF804E0DDE9022304B0704751
:1002B0002DE9F047089D04468C46002B40F08380D2
:1002C0008A42174647D9B2FA82F242B1C2F12000FF
:1002D00024FA00F09140974040EA010C94404FEA24
:1002E0001748230CBCFBF8F61FFA87FE08FB16C163
:1002F00043EA014306FB0EF1994209D9FB1806F1C6
:10030000FF3080F01981994240F21681023E3B4451
:100310005B1AA4B2B3FBF8F008FB103344EA0344C1
:1003200000FB0EFEA64509D93C1900F1FF3380F011
:100330000581A64540F2028102383C4440EA06406D
:10034000A4EB0E0400261DB1D4400023C5E90043F0
:100350003146BDE8F08702B9FFDEB2FA82F2002A28
:1003600050D1CB1B4FEA174E1FFA87F80126B3FB7B
:10037000FEFC210C0EFB1C3341EA034108FB0CF38D
:100380008B4207D979180CF1FF3002D28B4200F270
:10039000E9808446C91AA3B2B1FBFEF00EFB10112E
:1003A00043EA014408FB00F8A04507D93C1900F1D5
:1003B000FF3302D2A04500F2D9801846A4EB08040E
:1003C00040EA0C40BFE78B4209D9002D00F0B18014
:1003D0000026C5E9000130463146BDE8F087B3FA92
:1003E00083F6002E4AD18B4202D3824200F2B880BB
:1003F000841A61EB030101208C46002DA8D0C5E9C9
:10040000004CA5E7C2F1200320FA03F6974001FA59
:1004100002F04FEA174ED9403043030CB1FBFEF611
:100420001FFA87F80EFB161143EA014306FB08F199
:10043000994204FA02F409D9FB1806F1FF3C80F056
:100440008D80994240F28A80023E3B445B1A81B221
:10045000B3FBFEF00EFB103341EA034100FB08F34F
:100460008B4207D9791800F1FF3C73D28B4271D9C6
:1004700002383944CB1A40EA064678E7C6F1200C28
:1004800003FA06F422FA0CF31C4320FA0CF701FAE3
:1004900006F34FEA144E21FA0CF11F433B0CB1FB5B
:1004A000FEF91FFA84F80EFB191143EA014109FB1A
:1004B00008FA8A4502FA06F200FA06F308D961182A
:1004C00009F1FF3048D28A4546D9A9F102092144F1
:1004D000A1EB0A01BFB2B1FBFEF00EFB101147EA1F
:1004E000014700FB08F8B84507D9E71900F1FF31CB
:1004F0002ED2B8452CD90238274440EA0940A7EB50
:100500000807A0FB02894F45C64649461AD317D0B3
:100510005DB1B3EB0E0267EB010707FA0CFCF2408A
:100520004CEA0202F740C5E9002700263146BDE843
:10053000F0872E4628460BE70646E9E61846FDE614
:100540004345E5D2B8EB020E69EB04010138DFE761
:100550000846D2E760468DE78146B9E7664675E70B
:1005600030464AE7ACF1020C394413E702383C4408
:1005700024E700BF704700BF80B483B000AF78604D
:10058000396000BF0C37BD465DF8047B7047000042
:1005900080B485B000AFF860B9607A60FB68074A44
:1005A0001A60BB68064A1A607B6880221A6000BF26
:1005B0001437BD465DF8047B704700BFB4000020CF
:1005C00010010020B0B596B000AF224B07F13C04FB
:1005D0001D460FCD0FC495E8070084E8070007F11A
:1005E0003C030021184605F0FEFA03461A4A136040
:1005F0001A4B07F120041D460FCD0FC495E80700E4
:1006000084E8070007F120030021184605F0EBFA03
:100610000346134A1360134B3C1D1D460FCD0FC4F8
:1006200095E8070084E807003B1D0021184605F007
:10063000DAFA03460C4A13600C4819F013F90C4817
:1006400019F010F90B4819F00DF900BF5837BD46E5
:10065000B0BD00BFB0AB09086C7E0020CCAB090870
:10066000747F0020E8AB09089C7F002044AB090898
:1006700068AB09088CAB090880B582B000AF786020
:1006800004F0D8FD0A4819F0EDF8002218210948B5
:1006900002F0C6FC4FF4FA7005F0F1FA01221821BD
:1006A000044802F0BDFC4FF4FA7005F0E8FAE9E7FF
:1006B00004AC09080010024080B5ADF5067D02AF1C
:1006C0003B1D18600023C7F80C320023C7F808321E
:1006D0000023C7F804320023C7F800320123C7F80B
:1006E000FC31D7F8FC31002B10D05D4819F0BAF876
:1006F0005C4819F0B7F807F10803184605F016FD35
:1007000007F108031946584819F010F8D7F8FC31DA
:10071000002B00F09780554B5B68C7F80C32544BA8
:100720001B78002B0BD1D7F80C32002B07D0504B85
:1007300001221A7000F01EFD4E4819F093F84B4B41
:100740005B6819464C4818F0F1FFD7F80C321B0EC5
:10075000DAB24A4B5A73D7F80C321B0CDAB2474B59
:100760001A73D7F80C321B0ADAB2444BDA72D7F894
:100770000C32DAB2414B9A72404B9B7A19463F4B8E
:10078000DB7A1A463D4B1B7B18463C4B5B7B009348
:1007900003463B4818F0CAFF344B9B68C7F8083241
:1007A000D7F808321B0EDAB2344B5A74D7F8083235
:1007B0001B0CDAB2314B1A74D7F808321B0ADAB2C2
:1007C0002E4BDA73D7F80832DAB22C4B9A732B4BD4
:1007D0009B7B1946294BDB7B1A46284B1B7C184612
:1007E000264B5B7C00930346264818F09FFF1F4B67
:1007F000DB68C7F80432D7F804321B0EDAB21F4B9D
:100800005A75D7F804321B0CDAB21C4B1A75D7F89C
:1008100004321B0ADAB2194BDA74D7F80432DAB2AE
:10082000164B9A74154B9B7C1946144BDB7C1A466D
:10083000124B1B7D1846114B5B7D009303461248FB
:1008400018F074FF08F0F6FBC7F80002D7F80012A2
:100850000E4818F06BFF41F2883005F010FA40E7BF
:100860002CAC090850AC09088CAC09082881002080
:100870001003002094AC0908B4AC0908787F00206C
:10088000D0AC0908ECAC09080CAD09082CAD09087E
:1008900080B584B000AF7860134818F0E3FF134BC5
:1008A0001B88002B1BD0114B1B881946104818F0D1
:1008B0003DFF0023FB6009E00E4AFB6813441B78F0
:1008C000184618F04BFFFB680133FB60074B1B8891
:1008D0001A46FB689342EFDB044B00221A80142077
:1008E00005F0CDF9DBE700BFA0AD09082403002027
:1008F000BCAD0908707E002080B58CB000AF07F158
:100900001C0300221A605A609A60DA601A610023A0
:10091000BB61484B1B6B474A43F010031363454BC5
:100920001B6B03F01003BB61BB6900237B61414B70
:100930001B6B404A43F0800313633E4B1B6B03F079
:1009400080037B617B6900233B613A4B1B6B394A17
:1009500043F004031363374B1B6B03F004033B6149
:100960003B690023FB60334B1B6B324A43F00103AE
:100970001363304B1B6B03F00103FB60FB68002328
:10098000BB602C4B1B6B2B4A43F002031363294BB8
:100990001B6B03F00203BB60BB6800237B60254B2D
:1009A0001B6B244A43F008031363224B1B6B03F0B9
:1009B00008037B607B6800233B601E4B1B6B1D4A5A
:1009C00043F0400313631B4B1B6B03F040033B607E
:1009D0003B6800221821184802F022FB1823FB6113
:1009E00001233B6200237B620023BB6207F11C03EF
:1009F0001946114802F060F90123FB6100233B62B4
:100A000002237B6207F11C0319460C4802F054F9DB
:100A10004FF48043FB6100233B6202237B6207F1BA
:100A20001C031946064802F047F900BF3037BD469F
:100A300080BD00BF003802400010024000040240A8
:100A4000000C024080B582B000AF7860391D4FF6CF
:100A5000FF730122034803F072FC7B6818460837D5
:100A6000BD4680BDD480002080B500AF0C4B0D4A40
:100A70009A6000F0A1FD00F019F8FFF73DFF00F0CB
:100A8000C9FC00F08FFB00F02DFC00F0DBFB0648FA
:100A900018F0E8FEFFF796FD05F08EF8FEE700BFC0
:100AA00000ED00E000000808D4AF090880B594B05C
:100AB00000AF07F1200330220021184618F084FD12
:100AC00007F10C0300221A605A609A60DA601A611A
:100AD0000023BB60284B1B6C274A43F080531364F0
:100AE000254B1B6C03F08053BB60BB6800237B600D
:100AF000224B1B68214A43F4804313601F4B1B6841
:100B000003F480437B607B6801233B624FF48033B6
:100B10007B620223BB634FF48003FB6304233B64CB
:100B2000A8237B640223BB640423FB6407F1200336
:100B3000184602F08FFA0346002B01D000F050F85F
:100B40000F23FB6002233B6100237B614FF4A05322
:100B5000BB614FF48053FB6107F10C03052118467C
:100B600002F0F0FC0346002B01D000F039F800BF82
:100B70005037BD4680BD00BF0038024000700040C5
:100B800080B582B000AF78607B681B68104A9342E2
:100B900001D100F033FD7B681B680E4A934213D1EC
:100BA0000D4B1B6801330C4A13600B4B1B680B4A3F
:100BB00082FB03121113DA178A1A42F2107101FB39
:100BC00002F29A1A00F012F800BF0837BD4680BD45
:100BD000000001400040014014030020AD8BDB68A1
:100BE00080B400AF72B600BFFEE7000080B500AF72
:100BF0000121144802F0FCF90346002B0CD1124BE2
:100C00001B680133104A1360104B1B68012B16D16F
:100C10000E4B00221A6012E001210A4802F0E8F9A6
:100C20000346012B0BD1094B1B68002B07D1074B47
:100C300001221A6000F00CF8034B00221A6000BF7A
:100C400080BD00BF0004024018030020AC7F0020DC
:100C500080B500AF344B1B68002B12D1334B1B689F
:100C6000B42B48D9314B1B68B3F58C7F43D22E4B44
:100C700001221A602E4B00221A602E4B00221A60AD
:100C800039E0294B1B68012B35D1294B1B68172BE9
:100C900031D8264B1B680F2B0ED9244B1B681D2BFC
:100CA0000AD8244B1B685B00224A1360204B1B6848
:100CB00001331F4A13601EE01C4B1B68002B14D02D
:100CC0001A4B1B68092B10D81A4B1B685B00194A7A
:100CD0001360184B1B6843F00103164A1360144B52
:100CE0001B680133124A136005E00F4B00221A60A3
:100CF0000F4B00221A600E4B1B68182B12D10C4BA5
:100D000000221A60084B00221A600A4B1B680A4A2C
:100D10001360084B00221A60074B1B6819460748EE
:100D200018F004FD00BF80BDB07F00201803002034
:100D3000A87F0020A07F0020A47F0020F4AF090836
:100D400080B582B000AF00237B60124B5B6C114A10
:100D500043F4804353640F4B5B6C03F480437B602C
:100D60007B6800233B600B4B1B6C0A4A43F08053AB
:100D70001364084B1B6C03F080533B603B680022FC
:100D80000F216FF0010000F035FD00BF0837BD46B0
:100D900080BD00BF0038024080B58CB000AF7860E5
:100DA0000023FB620023BB6200227968192000F057
:100DB00021FD192000F03AFD0023FB601F4B5B6C06
:100DC0001E4A43F0010353641C4B5B6C03F00103A8
:100DD000FB60FB6807F1100207F114031146184687
:100DE00002F0ACFD02F096FD03465B00FB62FB6A7D
:100DF000134AA2FB03239B0C013BBB62114B124A1B
:100E00001A60104B40F2E732DA600E4ABB6A536058
:100E10000C4B00221A610B4B00229A60094802F029
:100E2000BFFD0346002B04D1064802F009FE03462D
:100E300000E0012318463037BD4680BD003802402F
:100E400083DE1B43B47F00200000014080B400AF6C
:100E5000FEE780B400AFFEE780B400AFFEE780B4E9
:100E600000AFFEE780B400AFFEE780B400AF00BF84
:100E7000BD465DF8047B704780B500AF024802F0C4
:100E80004FFE00BF80BD00BF8C80002080B500AF4A
:100E9000024802F045FE00BF80BD00BFB47F0020C5
:100EA00080B500AF024802F03BFE00BF80BD00BF2E
:100EB0004480002080B500AF024803F003FB00BF70
:100EC00080BD00BFD480002080B500AF024801F093
:100ED00031F900BF80BD00BF4C9A002080B400AF44
:100EE00001231846BD465DF8047B704780B483B08B
:100EF00000AF78603960054B16221A604FF0FF335F
:100F000018460C37BD465DF8047B704724EA002084
:100F100080B582B000AF78604FF0FF317868FFF79E
:100F2000E5FFFEE780B586B000AFF860B9607A6093
:100F300000237B610AE0AFF300800146BB685A1CC6
:100F4000BA60CAB21A707B6901337B617A697B68C7
:100F50009A42F0DB7B6818461837BD4680BD80B5E5
:100F600086B000AFF860B9607A6000237B6109E069
:100F7000BB685A1CBA601B781846FFF763FD7B6993
:100F800001337B617A697B689A42F1DB7B681846A2
:100F90001837BD4680BD80B483B000AF78604FF095
:100FA000FF3318460C37BD465DF8047B704780B4AC
:100FB00083B000AF786039603B684FF400525A60EC
:100FC000002318460C37BD465DF8047B704780B49B
:100FD00083B000AF7860012318460C37BD465DF83A
:100FE000047B704780B485B000AFF860B9607A6068
:100FF000002318461437BD465DF8047B7047000097
:1010000080B487B000AF7860144A154BD31A7B6167
:101010007B693B61134B1B68002B02D1114B124AB9
:101020001A60104B1A687B6813443A699A4205D2D9
:101030000E4B0C221A604FF0FF3309E0094B1B687E
:10104000FB60084B1A687B681344064A1360FB6810
:1010500018461C37BD465DF8047B7047000002202F
:10106000000400001C03002038EA002024EA0020CD
:1010700080B400AF084BD3F88830074A43F47003BC
:10108000C2F88830044B4FF000629A6000BFBD4642
:101090005DF8047B704700BF00ED00E080B5ADF562
:1010A000816D00AF3B1D18600622012102200AF06D
:1010B000B9FC0346284A1360274B1B68002B03DA50
:1010C000264818F0CFFB3AE0022387F8F53343F2C5
:1010D00039000BF04DF80346A7F8F633204816F018
:1010E000E2FF0346C7F8F8331B4B1B6807F57D7119
:1010F000102218460AF0EAF80346002B03DA1948D2
:1011000018F0B0FB1BE0184818F0ACFB124B186845
:1011100007F10C0100234FF47A720AF06DFCC7F856
:10112000040407F10C02D7F80434134400221A70A7
:1011300007F10C0319460D4818F0F8FAE6E70C4BD6
:101140001B68184606F04AFA094B00221A6000BFD5
:1011500007F58167BD4680BD1400002030B0090846
:101160000400002058B009087CB00908ACB0090898
:101170002003002080B582B002AF042300934FF417
:10118000206300220449054818F078F90346044A10
:10119000136000BFBD4680BD9D100808BCB00908A3
:1011A0002003002080B586B000AF07F108030022BD
:1011B0001A605A609A60DA603B4600221A605A60F0
:1011C0001E4B1F4A1A601D4B53225A601B4B0022B4
:1011D0009A601A4B3122DA60184B00221A61174BC1
:1011E00080229A61154802F0DBFB0346002B01D0F8
:1011F000FFF7F6FC4FF48053BB6007F10803194674
:101200000E4802F095FD0346002B01D0FFF7E8FCE5
:1012100000233B6000237B603B461946074802F0F1
:10122000B1FF0346002B01D0FFF7DAFC034802F0C0
:1012300007FC00BF1837BD4680BD00BF44800020BA
:101240000004004080B586B000AF07F1080300221B
:101250001A605A609A60DA603B4600221A605A604F
:101260001E4B1F4A1A601D4B53225A601B4B002213
:101270009A601A4B3122DA60184B00221A61174B20
:1012800000225A61154B80229A61144802F088FBB3
:101290000346002B01D0FFF7A3FC4FF48053BB6043
:1012A00007F1080319460D4802F042FD0346002BE2
:1012B00001D0FFF795FC00233B6000237B603B4699
:1012C0001946064802F05EFF0346002B01D0FFF7E7
:1012D00087FC00BF1837BD4680BD00BFFC7F0020E3
:1012E0000004014080B584B000AF3B4600221A6084
:1012F0005A609A60DA60174B174A1A60154BA7229A
:101300005A60144B00229A60124B3122DA60114B62
:1013100000221A610F4B80229A610E4802F040FBB6
:101320000346002B01D0FFF75BFC4FF480533B607A
:101330003B461946074802F0FBFC0346002B01D050
:10134000FFF74EFC034802F07BFB00BF1037BD46A1
:1013500080BD00BF8C8000200040014080B586B079
:1013600000AF78607B681B68264A934216D1002341
:101370007B61254B1B6C244A43F002031364224B10
:101380001B6C03F002037B617B69002205211D2099
:1013900000F030FA1D2000F049FA2EE07B681B684F
:1013A0001A4A93420ED100233B61174B5B6C164ADD
:1013B00043F002035364144B5B6C03F002033B6184
:1013C0003B691AE07B681B68114A934215D10023E0
:1013D000FB600D4B5B6C0C4A43F4803353640A4B47
:1013E0005B6C03F48033FB60FB680022052118204E
:1013F00000F000FA182000F019FA00BF1837BD46B7
:1014000080BD00BF000400400038024000040140DD
:101410000040014080B500AF134B144A1A60124BD4
:101420004FF4E1325A60104B00229A600E4B0022BA
:10143000DA600D4B00221A610B4B0C225A610A4BE9
:1014400000229A61084B0022DA61074802F02AFF65
:101450000346002B01D0FFF7C3FB012204490248D9
:1014600002F0FFFF00BF80BDD480002000100140CB
:10147000707F002080B58AB000AF786007F1140358
:1014800000221A605A609A60DA601A617B681B68F1
:101490001D4A934234D100233B611C4B5B6C1B4AB9
:1014A00043F010035364194B5B6C03F010033B6172
:1014B0003B690023FB60154B1B6B144A43F001038F
:1014C0001363124B1B6B03F00103FB60FB684FF4CB
:1014D000C0637B610223BB610023FB6103233B628A
:1014E00007237B6207F114031946094801F0E4FB66
:1014F00000220521252000F07DF9252000F096F935
:1015000000BF2837BD4680BD0010014000380240B2
:101510000000024080B584B000AF78607B681B6833
:101520000C4A934211D10C4B1B78FB730B4B1B885D
:101530005A1C91B2094A11801946094AFB7B53543F
:1015400001220549786802F08CFF00BF1037BD46C4
:1015500080BD00BF00100140707F002024030020E8
:10156000707E0020DFF834D00D480E490E4A00236B
:1015700002E0D458C4500433C4188C42F9D30B4A47
:101580000B4C002301E013600432A242FBD3FFF7AF
:101590006FFD17F0B7FFFFF767FA704700000220F2
:1015A000000000209800002018F209089800002090
:1015B00038EA0020FEE7000080B500AF0E4B1B6844
:1015C0000D4A43F4007313600B4B1B680A4A43F443
:1015D00080631360084B1B68074A43F480731360F1
:1015E000032000F0FCF80F20FFF7D6FBFFF7A8FB65
:1015F0000023184680BD00BF003C024080B400AF0D
:10160000064B1B781A46064B1B681344044A1360AA
:1016100000BFBD465DF8047B704700BF1C00002082
:101620001881002080B400AF034B1B681846BD46EC
:101630005DF8047B704700BF1881002080B584B03E
:1016400000AF7860FFF7EEFFB8607B68FB60FB6877
:10165000B3F1FF3F05D00A4B1B781A46FB681344D1
:10166000FB6000BFFFF7DEFF0246BB68D31AFA68D3
:101670009A42F7D800BF00BF1037BD4680BD00BFFB
:101680001C00002080B485B000AF78607B6803F058
:101690000703FB600C4BDB68BB60BA684FF6FF03C7
:1016A0001340BB60FB681A02BB68134343F0BF637F
:1016B00043F40033BB60044ABB68D36000BF1437F7
:1016C000BD465DF8047B704700ED00E080B400AFDC
:1016D000044BDB681B0A03F007031846BD465DF8A0
:1016E000047B704700ED00E080B483B000AF034698
:1016F000FB7197F90730002B0BDBFB7903F01F021E
:10170000074997F907305B09012000FA02F241F816
:10171000232000BF0C37BD465DF8047B704700BF37
:1017200000E100E080B483B000AF03463960FB7194
:1017300097F90730002B0ADB3B68DAB20C4997F9BE
:1017400007301201D2B20B4483F800230AE03B6851
:10175000DAB20849FB7903F00F03043B1201D2B25D
:101760000B441A7600BF0C37BD465DF8047B70470A
:1017700000E100E000ED00E080B489B000AFF86067
:10178000B9607A60FB6803F00703FB61FB69C3F192
:101790000703042B28BF0423BB61FB690433062B1A
:1017A00002D9FB69033B00E000237B614FF0FF326D
:1017B000BB6902FA03F3DA43BB681A407B699A40BB
:1017C0004FF0FF317B6901FA03F3D9437B680B408B
:1017D000134318462437BD465DF8047B704780B537
:1017E00082B000AF78607868FFF74CFF00BF083721
:1017F000BD4680BD80B586B000AF0346B9607A6053
:10180000FB7300237B61FFF761FF78617A68B96839
:101810007869FFF7B1FF024697F90F301146184675
:10182000FFF780FF00BF1837BD4680BD80B582B08E
:1018300000AF0346FB7197F907301846FFF754FFD6
:1018400000BF0837BD4680BD80B584B000AF78606A
:101850007B689B6DFB60FFF7E5FEB8607B6893F8E3
:101860003530DBB2022B08D07B6880225A657B685A
:10187000002283F83420012352E07B681B681A6839
:101880007B681B6822F016021A607B681B685A6925
:101890007B681B6822F080025A617B681B6C002BFE
:1018A00003D17B689B6C002B07D07B681B681A6890
:1018B0007B681B6822F008021A607B681B681A6844
:1018C0007B681B6822F001021A6013E0FFF7AAFE92
:1018D0000246BB68D31A052B0CD97B6820225A65B7
:1018E0007B68032283F835207B68002283F834204C
:1018F000032315E07B681B681B6803F00103002BC2
:10190000E4D17B68DB6D3F229A40FB689A607B687C
:10191000012283F835207B68002283F834200023DD
:1019200018461037BD4680BD80B483B000AF7860E4
:101930007B6893F83530DBB2022B04D07B688022C1
:101940005A6501230CE07B68052283F835207B680B
:101950001B681A687B681B6822F001021A6000236A
:1019600018460C37BD465DF8047B704780B588B0DB
:1019700000AF78600023FB610023FB60AA4BBB61D2
:1019800000237B6100233B617B68002B01D1012395
:1019900083E17B6893F84430DBB2002B06D17B688F
:1019A000002283F84520786803F0BEFC0023BB606A
:1019B0009E4B5B6C9D4A43F4804353649B4B5B6C32
:1019C00003F48043BB60BB68994B5B68984A23F47F
:1019D00000035360964B5A687B681B6A9449134313
:1019E0004B607B681B6803F580531A687B681B6833
:1019F00042F0010203F580531A60FFF713FE78618D
:101A000011E0FFF70FFE02467B69D31AB3F5FA7FA8
:101A100009D97B68032283F844207B68002283F87D
:101A20004520032339E17B681B6803F580531B685D
:101A300003F00103002BE4D17B681B681B69FB6189
:101A4000FB6923F01C03FB6101F044FFB861BB6933
:101A5000784A934208D9BB69774A934204D8FB6914
:101A600043F00803FB6127E0BB69734A934208D93E
:101A7000BB696D4A934204D2FB6943F00C03FB61DE
:101A80001AE0BB69684A934203D3BB696B4A93422D
:101A900011D9BB69694A934208D9BB69684A934224
:101AA00004D8FB6943F00403FB6105E0FB6943F0E4
:101AB0001003FB6100E000BF7B681B68FA691A61D4
:101AC0004FF400420021786800F017FC0346002B19
:101AD0000BD001233B613969786800F0CDFD7B684C
:101AE000012283F844200123D7E0FF20FFF7A6FD61
:101AF0007B685B68002B00F0A580FFF793FD7861A1
:101B000007F10C031A460121786800F08EFBFFF7FD
:101B100089FD02467B69D31A41F2883293420FD97C
:101B200001233B613969786800F0A6FD7B680122DA
:101B300083F844207B68002283F845200323ACE02F
:101B4000FB6803F00403002BDAD04FF4805200212D
:101B5000786800F0D2FB0346002B0BD001233B61D9
:101B60003969786800F088FD7B68012283F8442099
:101B7000012392E0FFF756FD786107F10C031A4646
:101B80000121786800F051FBFFF74CFD02467B69AC
:101B9000D31A41F2883293420FD901233B6139694C
:101BA000786800F069FD7B68012283F844207B6837
:101BB000002283F8452003236FE0FB6803F0200335
:101BC000002BDAD007F10C031A461021786800F0D8
:101BD0002CFB0346002B0BD001233B61396978684D
:101BE00000F04AFD7B68012283F84420012354E081
:101BF000FB6803F00403002B04D07B684FF4006201
:101C0000DA6002E07B680022DA60FB6803F002031E
:101C1000002B03D07B6800229A6035E07B684FF48C
:101C200080429A6030E000BF008793030038024092
:101C300000380140FF2C3101BF0E1602FFE0F50510
:101C40007FD1F0087B68DB68DB089AB27B689B6811
:101C50005B089BB213439BB21A460021786800F0E0
:101C60004CFB0346002B0BD001233B61396978689C
:101C700000F002FD7B68012283F8442001230CE080
:101C800040F6FF70FFF7DAFC3969786800F0F4FC81
:101C90007B68012283F84420002318462037BD4684
:101CA00080BD00BF80B487B000AFF860B9607A60D3
:101CB0003B6000237B61FB6893F84530012B01D129
:101CC000022352E0FB68012283F84520FB680222D0
:101CD00083F84420FB68BA68DA6200237B6130E055
:101CE0007B695B01BA6813443B613B694FF4801226
:101CF0001A607B6940F2F45202FB03F37A681344E2
:101D00001A463B699A60FB68DB69002B05D13B6989
:101D10001B6843F440023B691A603B68013B7A69E7
:101D20009A4208D27B6901335B01BA6813441A46B0
:101D30003B69DA6002E0BA683B69DA607B690133CB
:101D40007B617A693B689A42CAD3FB681B68BA68B0
:101D500003F5805310331A60FB68012283F8442096
:101D6000FB68002283F84520002318461C37BD4637
:101D70005DF8047B704780B487B000AFF860B9604D
:101D80007A603B6000237B61FB6893F84530012B50
:101D900001D1022356E0FB68012283F84520FB684D
:101DA000022283F84420FB68BA689A6200237B61B0
:101DB00034E07B695B01BA6813443B613B694FF0D7
:101DC00000421A603B6944F2F4525A607B6940F267
:101DD000F45202FB03F37A6813441A463B699A6093
:101DE000FB689B69012B05D13B695B6823F00042CE
:101DF0003B695A603B68013B7A699A4208D27B6929
:101E000001335B01BA6813441A463B69DA6002E0A9
:101E1000BA683B69DA607B6901337B617A693B6848
:101E20009A42C6D3FB681B68BA6803F580530C332B
:101E30001A60FB68012283F84420FB68002283F8C3
:101E40004520002318461C37BD465DF8047B7047CB
:101E500080B487B000AF7860396000237B610023D5
:101E6000FB6000233B617B6893F84530012B01D177
:101E70000223CDE07B68012283F845207B680222A3
:101E800083F844203B68002B09D17B68012283F84A
:101E900044207B68002283F845200123B8E07B685A
:101EA000DB6A1B68002B09DA7B68122283F8442066
:101EB0007B68002283F845200123A9E03B6840F2BB
:101EC000F452934215D93B68544AA2FB03239B0A60
:101ED0007B613A68514BA3FB02139B0A40F2F45119
:101EE00001FB03F3D31A002B05D07B6901337B611F
:101EF00001E001237B617B69012B1CD17B68DB6ADC
:101F00001A687B68DB6A42F040521A607B68DB6AC1
:101F10003A68C2F30C025A607B68DB6A1A687B6815
:101F2000DB6A42F000421A607B68DB6ADB681A46B3
:101F30007B68DA624BE000233B6144E07B68DB6A4C
:101F40001A687B68DB6A22F040521A603B69002BFA
:101F500007D17B68DB6A1A687B68DB6A42F08052D3
:101F60001A607B68DB6A40F2F4525A607B69013B7D
:101F70003A699A4216D17B68DB6A1A687B68DB6A29
:101F800042F000521A607B69254A02FB03F23B686B
:101F9000134403F2F453FB607B68DB6AFA68C2F314
:101FA0000C025A607B68DB6A1A687B68DB6A42F065
:101FB00000421A607B68DB6ADB681A467B68DA627B
:101FC0003B6901333B613A697B699A42B6D37B68CE
:101FD0001B6803F5805314331B6803F00403002BC4
:101FE0000DD07B681B6803F58053143304221A60FC
:101FF0007B681B6803F58053043300221A607B68FA
:10200000012283F844207B68002283F845200023C6
:1020100018461C37BD465DF8047B70470BB002AC18
:102020000CFAFFFF80B485B000AF78600023FB603E
:102030007B6893F84530012B01D1022374E07B6863
:10204000012283F845207B68022283F844205AE06D
:10205000FB680133FB607B689B6A1B6803F4407379
:10206000B3F5007F0DD17B689A6A7B681A637B6841
:1020700001229A637B689B6ADB681A467B689A62D6
:1020800041E07B689B6A1B6803F44073002B0BD113
:102090007B689B6B5A1C7B689A637B689B6ADB68D6
:1020A0001A467B689A622EE07B689A6A7B685A635C
:1020B0007B689B6B5A1C7B689A637B689B6B012BCC
:1020C00003D17B689A6A7B681A637B689B6A1B688A
:1020D0001B0CC3F30D031A1F7B68DA637B681B6B51
:1020E0009A687B681A647B689B6ADB681A467B681F
:1020F0009A627B68012283F844207B68002283F87F
:102100004520002310E07B689B6A1B68002B02DBE4
:10211000FB68032B9CD97B68012283F844207B68F1
:10212000002283F84520012318461437BD465DF888
:10213000047B704780B582B000AF78607B681B6815
:1021400003F5805314331B6803F04003402B12D176
:10215000786803F097F97B681B6803F580531433A4
:1021600040221A607B68012283F844207B680022A9
:1021700083F845201BE07B681B6803F5805314330C
:102180001B6803F00103012B11D1786800F039F8C6
:102190007B681B6803F58053143301221A607B6847
:1021A000012283F844207B68002283F845207B6865
:1021B0001B6803F5805314334FF480321A607B6838
:1021C0001B6803F5805314331B6803F40043B3F515
:1021D000004F12D1786800F01EF87B681B6803F589
:1021E000805314334FF400421A607B68012283F855
:1021F00044207B68002283F8452000BF0837BD4695
:1022000080BD80B483B000AF786000BF0C37BD469E
:102210005DF8047B704780B483B000AF786000BF86
:102220000C37BD465DF8047B704780B586B000AFC3
:10223000F8600B467A607B8100237B6100233B6161
:10224000FB6893F84430DBB2822B01D1022350E0CB
:10225000FB68822283F84420FB681B681B697B6152
:102260007B6903F01C037B61FB681B8ADB029BB26A
:102270007A6913437B617B899B0103F4F8637A6974
:1022800013437B617B6923F002037B617B6943F02D
:1022900001037B61FB681B687A691A61FFF7C2F969
:1022A000386115E0FFF7BEF902463B69D31AB3F572
:1022B000803F09D3FB68012283F84420FB68002299
:1022C00083F84520032314E0FB681B681B697B61CE
:1022D0007B6903F00103002BE4D1FB681B685B6999
:1022E0009BB21A467B681A60FB68012283F844207F
:1022F000002318461837BD4680BD80B586B000AFB4
:10230000F8600B467A607B8100237B6100233B6190
:10231000FB6893F84430DBB2422B01D102234EE03C
:10232000FB68422283F84420FB681B681B697B61C1
:102330007B6903F01C037B61FB681B8ADB029BB299
:102340007A6913437B617B899B0103F4F8637A69A3
:1023500013437B617B6943F002037B617B6943F03C
:1023600001037B617B689AB2FB681B685A61FB685A
:102370001B687A691A61FFF755F9386115E0FFF7B4
:1023800051F902463B69D31AB3F5803F09D3FB6884
:10239000012283F84420FB68002283F845200323B0
:1023A0000DE0FB681B681B697B617B6903F001031F
:1023B000002BE4D1FB68012283F844200023184657
:1023C0001837BD4680BD80B582B000AF78607B68AD
:1023D00093F84530012B01D102231FE07B680122D5
:1023E00083F845207B68022283F84420786800F057
:1023F00045FB786800F07CFB786800F013FC786897
:1024000000F0B0FB786800F0DDFB7B68012283F808
:1024100044207B68002283F84520002318460837B3
:10242000BD4680BD80B582B000AF78607B6893F810
:102430004530012B01D102231FE07B68012283F884
:1024400045207B68022283F84420786800F0A2FBD4
:10245000786800F0CFFB786800F067FB786800F0E0
:10246000E1FB786800F027FB7B68012283F84420B9
:102470007B68002283F84520002318460837BD46B4
:1024800080BD000080B584B000AF78603960002363
:10249000FB607B6893F84530012B01D10223E4E017
:1024A0007B68012283F845207B68022283F8442060
:1024B0003B68002B00F0B1807B681B681B68FB60E9
:1024C000FA686C4B1340FB603B681A683B685B68BA
:1024D0001A433B689B681A433B68DB681A437B6876
:1024E0009B681A433B681B691A433B685B691A4344
:1024F0007B68DB681A433B689B691A433B68DB696E
:102500001A433B681B6A1A433B685B6A1A433B6881
:102510009B6A1343FA681343FB607B681B68FA6885
:102520001A607B681B681B68FB600120FFF786F858
:102530007B681B68FA681A603B68DA6A3B681B6B49
:102540001A433B685B6B1A433B689B6B1A433B68BF
:10255000DB6B1A433B681B6C1A433B685B6C42EABB
:1025600003013B689A6C7B681B680A435A607B686E
:102570001B685B68FB600120FFF760F87B681B68E5
:10258000FA685A607B681B683A68D26C9A607B680C
:102590001B683A68126DDA607B681B689B69FB6098
:1025A000FA684FF641731340FB603B685B6D1A0499
:1025B0003B689B6D1A433B68DB6D1A433B681B6E9F
:1025C0001A433B685B6E1A433B689B6E1343FA6881
:1025D0001343FB607B681B68FA689A617B681B6821
:1025E0009B69FB600120FFF729F87B681B68FA688C
:1025F0009A613B68D96E3B681A6F7B681B680A4317
:10260000DA617B681B68DB69FB600120FFF716F865
:102610007B681B68FA68DA611EE07B681B681B68D0
:10262000FB60FB6823F49043FB607B689A687B68DF
:10263000DB681343FA681343FB607B681B68FA6826
:102640001A607B681B681B68FB600120FEF7F6FFC1
:102650007B681B68FA681A607B68012283F8442053
:102660007B68002283F84520002318461037BD46BA
:1026700080BD00BF0F8120FF80B5B0B000AF786093
:1026800039600023C7F8BC303B68002B07D07B685B
:102690004FF40062DA607B684FF480429A60002356
:1026A000BB640023FB6400233B6500237B650023A0
:1026B000BB650023FB657B68DB69002B03D14FF40E
:1026C00080633B6601E000233B664FF400737B664A
:1026D0000023BB660023FB6600233B6700237B6768
:1026E0000023BB674023FB670023C7F8803000232B
:1026F000C7F884300023C7F888300023C7F88C302F
:102700000023C7F890300023C7F894300023C7F89F
:1027100098300023C7F89C308023C7F8A0300023EE
:10272000C7F8A4300023C7F8A8300023C7F8AC309E
:102730000023C7F8B0300023C7F8B4300023C7F82F
:10274000B8307B681B681B68C7F8BC30D7F8BC2062
:10275000AC4B1340C7F8BC30BA6CFB6C1A433B6DF2
:102760001A437B6D1A437B689B681A43BB6D1A43FF
:10277000FB6D1A437B68DB681A433B6E1A437B6E22
:102780001A43BB6E1A43FB6E1A433B6F1343D7F8D1
:10279000BC201343C7F8BC307B681B68D7F8BC204B
:1027A0001A607B681B681B68C7F8BC300120FEF705
:1027B00045FF7B681B68D7F8BC201A607A6FBB6F37
:1027C0001A43FB6F1A43D7F880301A43D7F8843086
:1027D0001A43D7F888301A43D7F88C3042EA0301FD
:1027E000D7F890207B681B680A435A607B681B6897
:1027F0005B68C7F8BC300120FEF720FF7B681B68D0
:10280000D7F8BC205A607B681B68D7F894209A6080
:102810007B681B68D7F89820DA607B681B689B6927
:10282000C7F8BC30D7F8BC204FF641731340C7F847
:10283000BC30D7F89C301A04D7F8A0301A43D7F828
:10284000A4301A43D7F8A8301A43D7F8AC301A434B
:10285000D7F8B0301343D7F8BC201343C7F8BC30C7
:102860007B681B68D7F8BC209A617B681B689B69F2
:10287000C7F8BC300120FEF7E1FE7B681B68D7F883
:10288000BC209A61D7F8B410D7F8B8207B681B68D1
:102890000A43DA617B681B68DB69C7F8BC3001203A
:1028A000FEF7CCFE7B681B68D7F8BC20DA610023FA
:1028B000BB604FF00073FB6000233B614FF40013DB
:1028C0007B610023BB610023FB6100233B6200238B
:1028D0007B620423BB624FF00073FB624FF48033D2
:1028E0003B634FF480037B634FF40053BB6380234F
:1028F000FB6300233B6400237B647B681B6803F558
:10290000805318331B68C7F8BC30D7F8BC203E4B47
:102910001340C7F8BC30BA68FB681A433B691A43D6
:102920007B691A43BB691A43FB691A433B6A1A4322
:102930007B6A1A43BB6A1343D7F8BC201343C7F81A
:10294000BC307B681B6803F580531833D7F8BC2074
:102950001A607B681B6803F5805318331B68C7F83F
:10296000BC300120FEF76AFE7B681B6803F58053CC
:102970001833D7F8BC201A60FA6A3B6B1A437B6B9A
:102980001A43BB6B1A43FB6B1A433B6C9B001A4305
:102990007B6C1A437B681B6842F4000203F580538A
:1029A0001A607B681B6803F580531B68C7F8BC304E
:1029B0000120FEF743FE7B681B6803F58053D7F8C0
:1029C000BC201A607B689B69012B0FD17B681B6858
:1029D00003F580531C331A687B681B6842F480320D
:1029E00042F0400203F580531C331A607B685B6938
:1029F0001A460021786800F009F800BFC037BD46CC
:102A000080BD00BF0F8120FF233FDEF880B487B078
:102A100000AFF860B9607A607B6805331B781B02F1
:102A20007A680432127813437B61BA68114B1344FD
:102A30001A467B6913607B6803331B781A067B6830
:102A400002331B781B041A437B6801331B781B027B
:102A500013437A68127813437B61BA68064B1344B8
:102A60001A467B69136000BF1C37BD465DF8047BC6
:102A7000704700BF408002404480024080B584B06F
:102A800000AF78600023FB607B681B681A687B6876
:102A90001B6842F008021A607B681B681B68FB60B9
:102AA000012000F0E9F87B681B68FA681A6000BF33
:102AB0001037BD4680BD80B584B000AF786000237C
:102AC000FB607B681B681A687B681B6822F0080241
:102AD0001A607B681B681B68FB60012000F0CCF863
:102AE0007B681B68FA681A6000BF1037BD4680BD5E
:102AF00080B584B000AF78600023FB607B681B6802
:102B00001A687B681B6842F004021A607B681B68C5
:102B10001B68FB60012000F0AFF87B681B68FA6857
:102B20001A6000BF1037BD4680BD80B584B000AFCD
:102B300078600023FB607B681B681A687B681B68F1
:102B400022F004021A607B681B681B68FB6001208E
:102B500000F092F87B681B68FA681A6000BF1037B3
:102B6000BD4680BD80B483B000AF78607B681B68D1
:102B700003F5805318331A687B681B6842F40052CF
:102B800003F5805318331A6000BF0C37BD465DF85B
:102B9000047B704780B483B000AF78607B681B68AB
:102BA00003F5805318331A687B681B6822F40052BF
:102BB00003F5805318331A6000BF0C37BD465DF82B
:102BC000047B704780B483B000AF78607B681B687B
:102BD00003F5805318331A687B681B6842F00202C1
:102BE00003F5805318331A6000BF0C37BD465DF8FB
:102BF000047B704780B483B000AF78607B681B684B
:102C000003F5805318331A687B681B6822F00202B0
:102C100003F5805318331A6000BF0C37BD465DF8CA
:102C2000047B704780B584B000AF78600023FB6000
:102C30007B681B6803F5805318331A687B681B6830
:102C400042F4801203F5805318331A607B681B68C6
:102C500003F5805318331B68FB60012000F00CF86B
:102C60007B681B68FA6803F5805318331A6000BF4D
:102C70001037BD4680BD000080B485B000AF7860DD
:102C80000B4B1B680B4AA2FB03235B0A7A6802FB0F
:102C900003F3FB6000BFFB685A1EFA60002BF9D1FA
:102CA00000BF00BF1437BD465DF8047B704700BF0E
:102CB00000000020D34D621080B489B000AF78606E
:102CC000396000237B6100233B610023BB6100234B
:102CD000FB616BE10122FB6902FA03F37B613B6854
:102CE0001B687A6913403B613A697B699A4240F0FC
:102CF0005A813B685B6803F00303012B05D03B68F6
:102D00005B6803F00303022B30D17B689B68BB61D7
:102D1000FB695B00032202FA03F3DB43BA69134049
:102D2000BB613B68DA68FB695B0002FA03F3BA69CE
:102D30001343BB617B68BA699A607B685B68BB615F
:102D40000122FB6902FA03F3DB43BA691340BB615A
:102D50003B685B681B0903F00102FB6902FA03F39D
:102D6000BA691343BB617B68BA695A603B685B68A8
:102D700003F00303032B17D07B68DB68BB61FB699F
:102D80005B00032202FA03F3DB43BA691340BB6121
:102D90003B689A68FB695B0002FA03F3BA69134364
:102DA000BB617B68BA69DA603B685B6803F0030368
:102DB000022B23D1FB69DA087B68083253F82230F2
:102DC000BB61FB6903F007039B000F2202FA03F3C8
:102DD000DB43BA691340BB613B681A69FB6903F0C6
:102DE00007039B0002FA03F3BA691343BB61FB6953
:102DF000DA087B680832B96943F822107B681B68DF
:102E0000BB61FB695B00032202FA03F3DB43BA698F
:102E10001340BB613B685B6803F00302FB695B0026
:102E200002FA03F3BA691343BB617B68BA691A609B
:102E30003B685B6803F44033002B00F0B480002350
:102E4000FB60604B5B6C5F4A43F4804353645D4BB3
:102E50005B6C03F48043FB60FB685B4AFB699B0887
:102E6000023352F82330BB61FB6903F003039B007C
:102E70000F2202FA03F3DB43BA691340BB617B689C
:102E8000524A93422BD07B68514A934225D07B68AB
:102E9000504A93421FD07B684F4A934219D07B68B7
:102EA0004E4A934213D07B684D4A93420DD07B68C3
:102EB0004C4A934207D07B684B4A934201D1072387
:102EC0000EE008230CE006230AE0052308E00423B3
:102ED00006E0032304E0022302E0012300E00023D4
:102EE000FA6902F0030292009340BA691343BB618E
:102EF0003549FB699B080233BA6941F823203B4BF3
:102F00001B68BB613B69DB43BA691340BB613B682B
:102F10005B6803F48033002B03D0BA693B69134329
:102F2000BB61324ABB691360304B5B68BB613B6974
:102F3000DB43BA691340BB613B685B6803F4003351
:102F4000002B03D0BA693B691343BB61274ABB69B5
:102F50005360264B9B68BB613B69DB43BA691340F6
:102F6000BB613B685B6803F48013002B03D0BA6934
:102F70003B691343BB611D4ABB6993601B4BDB6814
:102F8000BB613B69DB43BA691340BB613B685B686B
:102F900003F40013002B03D0BA693B691343BB61F0
:102FA000124ABB69D360FB690133FB61FB690F2BDC
:102FB0007FF690AE00BF00BF2437BD465DF8047BAE
:102FC000704700BF00380240003801400000024056
:102FD0000004024000080240000C024000100240C1
:102FE0000014024000180240001C0240003C014056
:102FF00080B485B000AF78600B467B807B681A692F
:103000007B881340002B02D00123FB7301E00023D7
:10301000FB73FB7B18461437BD465DF8047B704795
:1030200080B483B000AF78600B467B8013467B7022
:103030007B78002B03D07A887B689A6103E07B88D9
:103040001A047B689A6100BF0C37BD465DF8047BAB
:103050007047000080B586B000AF78607B68002BB9
:1030600001D1012364E27B681B6803F00103002B9C
:1030700075D0A34B9B6803F00C03042B0CD0A04B22
:103080009B6803F00C03082B12D19D4B5B6803F483
:103090008003B3F5800F0BD1994B1B6803F4003309
:1030A000002B5BD07B685B68002B57D101233FE28C
:1030B0007B685B68B3F5803F06D1914B1B68904AF3
:1030C00043F4803313601DE07B685B68B3F5A02F89
:1030D0000CD18B4B1B688A4A43F480231360884BC6
:1030E0001B68874A43F4803313600BE0844B1B68F2
:1030F000834A23F480331360814B1B68804A23F496
:10310000802313607B685B68002B13D0FEF78AFA7C
:10311000386108E0FEF786FA02463B69D31A642B51
:1031200001D9032304E2764B1B6803F40033002B20
:10313000F0D014E0FEF776FA386108E0FEF772FA94
:1031400002463B69D31A642B01D90323F0E16C4B8F
:103150001B6803F40033002BF0D100E000BF7B6854
:103160001B6803F00203002B63D0654B9B6803F0E0
:103170000C03002B0BD0624B9B6803F00C03082B55
:103180001CD15F4B5B6803F48003002B16D15C4BB2
:103190001B6803F00203002B05D07B68DB68012B62
:1031A00001D00123C4E1564B1B6823F0F8027B6871
:1031B0001B69DB00524913430B603AE07B68DB6814
:1031C000002B20D04F4B01221A60FEF72BFA3861FA
:1031D00008E0FEF727FA02463B69D31A022B01D911
:1031E0000323A5E1464B1B6803F00203002BF0D03C
:1031F000434B1B6823F0F8027B681B69DB004049E6
:1032000013430B6015E03F4B00221A60FEF70AFAE9
:10321000386108E0FEF706FA02463B69D31A022B32
:1032200001D9032384E1364B1B6803F00203002B12
:10323000F0D17B681B6803F00803002B30D07B685B
:103240005B69002B16D0304B01221A60FEF7EAF9B9
:10325000386108E0FEF7E6F902463B69D31A022B13
:1032600001D9032364E1264B5B6F03F00203002BBB
:10327000F0D015E0244B00221A60FEF7D3F9386134
:1032800008E0FEF7CFF902463B69D31A022B01D9B9
:1032900003234DE11A4B5B6F03F00203002BF0D1C7
:1032A0007B681B6803F00403002B00F0A080002360
:1032B000FB75134B1B6C03F08053002B0FD10023C5
:1032C000BB600F4B1B6C0E4A43F0805313640C4BD6
:1032D0001B6C03F08053BB60BB680123FB750B4B79
:1032E0001B6803F48073002B21D1084B1B68074A2D
:1032F00043F480731360FEF795F9386111E000BF65
:103300000038024000004742800E474200700040F3
:10331000FEF788F902463B69D31A022B01D9032331
:1033200006E1854B1B6803F48073002BF0D07B68AB
:103330009B68012B06D1814B1B6F804A43F0010330
:1033400013671CE07B689B68052B0CD17B4B1B6FC4
:103350007A4A43F004031367784B1B6F774A43F0B4
:10336000010313670BE0754B1B6F744A23F00103D5
:103370001367724B1B6F714A23F0040313677B685A
:103380009B68002B15D0FEF74DF938610AE0FEF777
:1033900049F902463B69D31A41F28832934201D976
:1033A0000323C5E0654B1B6F03F00203002BEED037
:1033B00014E0FEF737F938610AE0FEF733F9024608
:1033C0003B69D31A41F28832934201D90323AFE01B
:1033D0005A4B1B6F03F00203002BEED1FB7D012B38
:1033E00005D1564B1B6C554A23F0805313647B6800
:1033F0009B69002B00F09B80504B9B6803F00C03F3
:10340000082B5CD07B689B69022B41D14C4B00227E
:103410001A60FEF707F9386108E0FEF703F9024683
:103420003B69D31A022B01D9032381E0434B1B686C
:1034300003F00073002BF0D17B68DA697B681B6AAC
:103440001A437B685B6A9B011A437B689B6A5B0833
:10345000013B1B041A437B68DB6A1B063749134395
:103460004B60374B01221A60FEF7DCF8386108E048
:10347000FEF7D8F802463B69D31A022B01D9032381
:1034800056E02E4B1B6803F00073002BF0D04EE08B
:103490002B4B00221A60FEF7C5F8386108E0FEF7F2
:1034A000C1F802463B69D31A022B01D903233FE03E
:1034B000224B1B6803F00073002BF0D137E07B68D0
:1034C0009B69012B01D1012332E01C4B5B68FB603F
:1034D0007B689B69012B28D0FB6803F480027B6822
:1034E000DB699A4221D1FB6803F03F027B681B6ACB
:1034F0009A421AD1FA6847F6C07313407A68526A42
:103500009201934211D1FB6803F440327B689B6ABD
:103510005B08013B1B049A4207D1FB6803F0706211
:103520007B68DB6A1B069A4201D0012300E000237E
:1035300018461837BD4680BD007000400038024074
:103540006000474280B584B000AF786039607B6826
:10355000002B01D10123CCE0684B1B6803F007036B
:103560003A689A420CD9654B3A68D2B21A70634BEA
:103570001B6803F007033A689A4201D00123B8E0C0
:103580007B681B6803F00203002B20D07B681B685C
:1035900003F00403002B05D0594B9B68584A43F4B1
:1035A000E05393607B681B6803F00803002B05D091
:1035B000534B9B68524A43F460439360504B9B6863
:1035C00023F0F0027B689B684D4913438B607B6856
:1035D0001B6803F00103002B44D07B685B68012B60
:1035E00007D1474B1B6803F40033002B19D101238B
:1035F0007FE07B685B68022B03D07B685B68032BF2
:1036000007D13F4B1B6803F00073002B09D1012346
:103610006FE03B4B1B6803F00203002B01D1012339
:1036200067E0374B9B6823F003027B685B68344993
:1036300013438B60FDF7F6FFF8600AE0FDF7F2FF39
:103640000246FB68D31A41F28832934201D9032320
:103650004FE02B4B9B6803F00C027B685B689B0080
:103660009A42EBD1254B1B6803F007033A689A4254
:103670000CD2224B3A68D2B21A70204B1B6803F06E
:1036800007033A689A4201D0012332E07B681B6845
:1036900003F00403002B08D0194B9B6823F4E0527D
:1036A0007B68DB68164913438B607B681B6803F0FB
:1036B0000803002B09D0124B9B6823F460427B68FF
:1036C0001B69DB000E4913438B6000F021F80246B2
:1036D0000B4B9B681B0903F00F030A49CB5C22FAD2
:1036E00003F3094A1360094B1B681846FDF754FBA6
:1036F000002318461037BD4680BD00BF003C024085
:103700000038024018EE09080000002018000020D0
:103710002DE9B04384B000AF00237B600023FB6041
:1037200000233B600023BB60674B9B6803F00C03E6
:10373000082B0DD0082B00F2BD80002B02D0042BEB
:1037400003D0B7E0614BBB60B7E0614BBB60B4E056
:103750005D4B5B6803F03F037B605B4B5B6803F48E
:103760008003002B4DD0584B5B689B091A464FF0E5
:10377000000340F2FF104FF0000102EA000803EAE4
:103780000109404649464FF000024FF000034B014B
:1037900043EAD063420110461946B0EB080061EBE2
:1037A00009014FF000024FF000038B0143EA9063E0
:1037B0008201121A63EB01034FF000004FF0000189
:1037C000D90041EA5271D00002460B4612EB0802C2
:1037D00043EB09034FF000004FF00001590241EAAA
:1037E000D251500202460B46104619467B681A46D3
:1037F0004FF00003FCF744FD02460B461346FB6006
:103800004AE0314B5B689B091A464FF0000340F2D7
:10381000FF104FF0000102EA000403EA0105204610
:1038200029464FF000024FF000034B0143EAD063FA
:10383000420110461946001B61EB05014FF00002E2
:103840004FF000038B0143EA90638201121A63EB8D
:1038500001034FF000004FF00001D90041EA52711E
:10386000D00002460B46121945EB03034FF000004F
:103870004FF00001990241EA9251900202460B4634
:10388000104619467B681A464FF00003FCF7F8FC17
:1038900002460B461346FB600B4B5B681B0C03F0A8
:1038A000030301335B003B60FA683B68B2FBF3F350
:1038B000BB6002E0054BBB6000BFBB681846103719
:1038C000BD46BDE8B08300BF003802400024F400CC
:1038D00000127A0080B400AF034B1B681846BD4647
:1038E0005DF8047B704700BF0000002080B500AF8A
:1038F000FFF7F0FF0246054B9B689B0A03F00703A6
:103900000349CB5C22FA03F3184680BD003802401D
:1039100028EE090880B500AFFFF7DCFF0246054B33
:103920009B685B0B03F007030349CB5C22FA03F3AC
:10393000184680BD0038024028EE090880B483B0E4
:1039400000AF786039607B680F221A60124B9B6869
:1039500003F003027B685A600F4B9B6803F0F00290
:103960007B689A600C4B9B6803F4E0527B68DA60DA
:10397000094B9B68DB0803F4E0527B681A61074B34
:103980001B6803F007023B681A6000BF0C37BD4696
:103990005DF8047B704700BF00380240003C0240E5
:1039A00080B582B000AF78607B68002B01D1012325
:1039B00041E07B6893F83D30DBB2002B06D17B6899
:1039C000002283F83C207868FDF7C8FC7B6802225F
:1039D00083F83D207B681A687B68043319461046DB
:1039E00000F096FA7B68012283F846207B6801226A
:1039F00083F83E207B68012283F83F207B68012208
:103A000083F840207B68012283F841207B680122F3
:103A100083F842207B68012283F843207B680122DF
:103A200083F844207B68012283F845207B680122CB
:103A300083F83D20002318460837BD4680BD0000AE
:103A400080B485B000AF78607B6893F83D30DBB21E
:103A5000012B01D001234EE07B68022283F83D2038
:103A60007B681B68DA687B681B6842F00102DA60D9
:103A70007B681B68234A934222D07B681B68B3F1A2
:103A8000804F1DD07B681B681F4A934218D07B680B
:103A90001B681E4A934213D07B681B681C4A9342E2
:103AA0000ED07B681B681B4A934209D07B681B6859
:103AB000194A934204D07B681B68184A934211D17B
:103AC0007B681B689B6803F00703FB60FB68062BA1
:103AD00010D07B681B681A687B681B6842F0010283
:103AE0001A6007E07B681B681A687B681B6842F0F5
:103AF00001021A60002318461437BD465DF8047BA6
:103B0000704700BF00000140000400400008004072
:103B1000000C00400004014000400140001800403B
:103B200080B582B000AF78607B681B681B6903F0CA
:103B30000203022B22D17B681B68DB6803F00203BF
:103B4000022B1BD17B681B686FF002021A617B6835
:103B500001221A777B681B689B6903F00303002B23
:103B600003D0786800F0B5F905E0786800F0A7F9AF
:103B7000786800F0B8F97B6800221A777B681B68C8
:103B80001B6903F00403042B22D17B681B68DB68EC
:103B900003F00403042B1BD17B681B686FF0040245
:103BA0001A617B6802221A777B681B689B6903F4A1
:103BB0004073002B03D0786800F08BF905E078683B
:103BC00000F07DF9786800F08EF97B6800221A77A2
:103BD0007B681B681B6903F00803082B22D17B68F4
:103BE0001B68DB6803F00803082B1BD17B681B688C
:103BF0006FF008021A617B6804221A777B681B68E1
:103C0000DB6903F00303002B03D0786800F061F94F
:103C100005E0786800F053F9786800F064F97B6893
:103C200000221A777B681B681B6903F01003102BB6
:103C300022D17B681B68DB6803F01003102B1BD1BB
:103C40007B681B686FF010021A617B6808221A7784
:103C50007B681B68DB6903F44073002B03D0786832
:103C600000F037F905E0786800F029F9786800F08D
:103C70003AF97B6800221A777B681B681B6903F09E
:103C80000103012B0ED17B681B68DB6803F0010385
:103C9000012B07D17B681B686FF001021A617868FD
:103CA000FCF76EFF7B681B681B6903F08003802BA9
:103CB0000ED17B681B68DB6803F08003802B07D183
:103CC0007B681B686FF080021A61786800F0E0FA88
:103CD0007B681B681B6903F04003402B0ED17B6897
:103CE0001B68DB6803F04003402B07D17B681B682F
:103CF0006FF040021A61786800F0FFF87B681B687B
:103D00001B6903F02003202B0ED17B681B68DB6846
:103D100003F02003202B07D17B681B686FF0200283
:103D20001A61786800F0AAFA00BF0837BD4680BD66
:103D300080B584B000AF786039600023FB737B6886
:103D400093F83C30012B01D10223B4E07B680122BF
:103D500083F83C207B68022283F83D207B681B6847
:103D60009B68BB60BB6823F07703BB60BB6823F430
:103D70007F43BB607B681B68BA689A603B681B68BE
:103D8000B3F5005F3ED0B3F5005F00F28780B3F576
:103D9000805F00F08680B3F5805F7FD8702B1AD0EB
:103DA000702B7BD8602B50D0602B77D8502B3CD019
:103DB000502B73D8402B58D0402B6FD8302B64D069
:103DC000302B6BD8202B60D0202B67D8002B5CD0F9
:103DD000102B5AD062E07B6818683B6899683B6892
:103DE0005A683B68DB6800F0ADF97B681B689B682C
:103DF000BB60BB6843F07703BB607B681B68BA6835
:103E00009A604FE07B6818683B6899683B685A681D
:103E10003B68DB6800F096F97B681B689A687B68F2
:103E20001B6842F480429A603CE07B6818683B68FB
:103E300059683B68DB681A4600F00AF97B681B6822
:103E40005021184600F063F92CE07B6818683B6845
:103E500059683B68DB681A4600F029F97B681B68E3
:103E60006021184600F053F91CE07B6818683B6835
:103E700059683B68DB681A4600F0EAF87B681B6803
:103E80004021184600F043F90CE07B681A683B6853
:103E90001B681946104600F03AF903E00123FB7352
:103EA00000E000BF7B68012283F83D207B68002290
:103EB00083F83C20FB7B18461037BD4680BD80B49C
:103EC00083B000AF786000BF0C37BD465DF8047B5F
:103ED000704780B483B000AF786000BF0C37BD4638
:103EE0005DF8047B704780B483B000AF786000BF9A
:103EF0000C37BD465DF8047B704780B483B000AFDB
:103F0000786000BF0C37BD465DF8047B7047000049
:103F100080B485B000AF786039607B681B68FB6057
:103F20007B68404A934213D07B68B3F1804F0FD037
:103F30007B683D4A93420BD07B683C4A934207D052
:103F40007B683B4A934203D07B683A4A934208D14C
:103F5000FB6823F07003FB603B685B68FA681343FF
:103F6000FB607B682F4A93422BD07B68B3F1804F74
:103F700027D07B682C4A934223D07B682B4A9342FC
:103F80001FD07B682A4A93421BD07B68294A934200
:103F900017D07B68284A934213D07B68274A934204
:103FA0000FD07B68264A93420BD07B68254A934208
:103FB00007D07B68244A934203D07B68234A93420C
:103FC00008D1FB6823F44073FB603B68DB68FA6848
:103FD0001343FB60FB6823F080023B685B6913437B
:103FE000FB607B68FA681A603B689A687B68DA62F3
:103FF0003B681A687B689A627B680A4A934203D0DE
:104000007B680C4A934203D13B681A697B681A6348
:104010007B6801225A6100BF1437BD465DF8047BFE
:10402000704700BF0000014000040040000800404D
:10403000000C0040000401400040014000440140E9
:104040000048014000180040001C004000200040D3
:1040500080B487B000AFF860B9607A60FB681B6A13
:104060007B61FB681B6A23F00102FB681A62FB6834
:104070009B693B613B6923F0F0033B617B681B015B
:104080003A6913433B617B6923F00A037B617A69D8
:10409000BB6813437B61FB683A699A61FB687A6984
:1040A0001A6200BF1C37BD465DF8047B704780B4C0
:1040B00087B000AFF860B9607A60FB681B6A23F0D4
:1040C0001002FB681A62FB689B697B61FB681B6AD4
:1040D0003B617B6923F470437B617B681B037A69D6
:1040E00013437B613B6923F0A0033B61BB681B0169
:1040F0003A6913433B61FB687A699A61FB683A69E4
:104100001A6200BF1C37BD465DF8047B704780B45F
:1041100085B000AF786039607B689B68FB60FB68A6
:1041200023F07003FB603A68FB68134343F0070316
:10413000FB607B68FA689A6000BF1437BD465DF883
:10414000047B704780B487B000AFF860B9607A60D4
:104150003B60FB689B687B617B6923F47F437B61E9
:104160003B681A027B681A43BB6813437A6913439E
:104170007B61FB687A699A6000BF1C37BD465DF8B9
:10418000047B704780B485B000AF786039607B688D
:1041900093F83C30012B01D102235AE07B680122C5
:1041A00083F83C207B68022283F83D207B681B68F3
:1041B0005B68FB607B681B689B68BB60FB6823F0E7
:1041C0007003FB603B681B68FA681343FB607B6805
:1041D0001B68FA685A607B681B68214A934222D0A8
:1041E0007B681B68B3F1804F1DD07B681B681D4A3C
:1041F000934218D07B681B681B4A934213D07B689C
:104200001B681A4A93420ED07B681B68184A934277
:1042100009D07B681B68174A934204D07B681B68EF
:10422000154A93420CD1BB6823F08003BB603B6806
:104230005B68BA681343BB607B681B68BA689A60A6
:104240007B68012283F83D207B68002283F83C20B4
:10425000002318461437BD465DF8047B704700BF45
:10426000000001400004004000080040000C004035
:1042700000040140004001400018004080B483B0B9
:1042800000AF786000BF0C37BD465DF8047B704717
:1042900080B483B000AF786000BF0C37BD465DF8D6
:1042A000047B704780B582B000AF78607B68002BDC
:1042B00001D101233FE07B6893F83D30DBB2002B56
:1042C00006D17B68002283F83C207868FDF7D2F89D
:1042D0007B68242283F83D207B681B68DA687B6852
:1042E0001B6822F40052DA60786800F0DBFD7B681E
:1042F0001B681A697B681B6822F490421A617B680C
:104300001B685A697B681B6822F02A025A617B6825
:104310001B68DA687B681B6842F40052DA607B68CD
:1043200000221A647B68202283F83D207B682022CB
:1043300083F83E20002318460837BD4680BD80B56F
:104340008AB002AFF860B9603B601346FB8000237F
:104350007B61FB6893F83D30DBB2202B7CD1BB68DE
:10436000002B02D0FB88002B01D1012375E0FB68F4
:1043700093F83C30012B01D102236EE0FB6801224F
:1043800083F83C20FB6800221A64FB68212283F832
:104390003D20FDF747F97861FB68FA889A84FB684D
:1043A000FA88DA84FB689B68B3F5805F08D1FB6804
:1043B0001B69002B04D10023FB61BB68BB6103E0D8
:1043C000BB68FB610023BB61FB68002283F83C20D3
:1043D0002AE03B6800937B6900228021F86800F0A6
:1043E0001FFB0346002B01D0032336E0FB69002BA3
:1043F0000BD1BB691B881A46FB681B68C2F3080215
:104400005A60BB690233BB6107E0FB691A78FB683D
:104410001B685A60FB690133FB61FB68DB8C9BB254
:10442000013B9AB2FB68DA84FB68DB8C9BB2002B01
:10443000CFD13B6800937B6900224021F86800F0EF
:10444000EFFA0346002B01D0032306E0FB6820228D
:1044500083F83D20002300E0022318462037BD46A4
:1044600080BD80B584B000AFF860B9601346FB80B2
:10447000FB6893F83E30DBB2202B1DD1BB68002BCC
:1044800002D0FB88002B01D1012316E0FB6893F8D2
:104490003C30012B01D102230FE0FB68012283F89D
:1044A0003C20FB6800221A63FB881A46B968F8684A
:1044B00000F024FB034600E0022318461037BD46F7
:1044C00080BD000080B5BAB000AF78607B681B6823
:1044D0001B68C7F8E4307B681B68DB68C7F8E0300E
:1044E0007B681B685B69C7F8DC300023C7F8D830ED
:1044F0000023C7F8D430D7F8E43003F00F03C7F82F
:10450000D830D7F8D830002B0FD1D7F8E43003F0EB
:104510002003002B09D0D7F8E03003F02003002B54
:1045200003D0786800F003FC56E2D7F8D830002BAF
:1045300000F0DE80D7F8DC3003F00103002B06D159
:10454000D7F8E03003F49073002B00F0D180D7F857
:10455000E43003F00103002B0BD0D7F8E03003F474
:104560008073002B05D07B681B6C43F001027B68D5
:104570001A64D7F8E43003F00403002B0BD0D7F80B
:10458000DC3003F00103002B05D07B681B6C43F08B
:1045900002027B681A64D7F8E43003F00203002BB0
:1045A0000BD0D7F8DC3003F00103002B05D07B687B
:1045B0001B6C43F004027B681A64D7F8E43003F004
:1045C0000803002B11D0D7F8E03003F02003002BB4
:1045D00005D1D7F8DC3003F00103002B05D07B6850
:1045E0001B6C43F008027B681A647B681B6C002B11
:1045F00000F0ED81D7F8E43003F02003002B08D061
:10460000D7F8E03003F02003002B02D0786800F0E8
:104610008EFB7B681B685B6903F04003402B0CBF7B
:1046200001230023DBB2C7F8D4307B681B6C03F096
:104630000803002B03D1D7F8D430002B4FD0786873
:1046400000F096FA7B681B685B6903F04003402B1F
:1046500041D17B681B681433C7F89C30D7F89C3075
:1046600053E8003FC7F89830D7F8983023F040035C
:10467000C7F8D0307B681B681433D7F8D020C7F850
:10468000A820C7F8A430D7F8A410D7F8A82041E88C
:104690000023C7F8A030D7F8A030002BD9D17B6811
:1046A0009B6B002B13D07B689B6B7D4A1A657B68E4
:1046B0009B6B1846FDF738F90346002B16D07B6834
:1046C0009B6B1B6D7A68926B104698470EE078687A
:1046D00000F090F90AE0786800F08CF906E078685C
:1046E00000F088F97B6800221A6470E100BF6EE177
:1046F0007B681B6B012B40F04A81D7F8E43003F054
:104700001003002B00F04381D7F8E03003F01003D2
:10471000002B00F03C810023BB607B681B681B689A
:10472000BB607B681B685B68BB60BB687B681B68A1
:104730005B6903F04003402B40F0B4807B689B6BC7
:104740001B685B68A7F8BE30B7F8BE30002B00F0DE
:1047500040817B689B8DB7F8BE209A4280F03981FA
:104760007B68B7F8BE20DA857B689B6BDB69B3F5A5
:10477000807F00F088807B681B680C33C7F8883026
:10478000D7F8883053E8003FC7F88430D7F8843032
:1047900023F48073C7F8B8307B681B680C33D7F8F4
:1047A000B820C7F89420C7F89030D7F89010D7F801
:1047B000942041E80023C7F88C30D7F88C30002BC8
:1047C000D9D17B681B6814337B677B6F53E8003F4C
:1047D0003B673B6F23F00103C7F8B4307B681B686D
:1047E0001433D7F8B420C7F88020FB67F96FD7F8E7
:1047F000802041E80023BB67BB6F002BE1D17B68C1
:104800001B6814333B663B6E53E8003FFB65FB6D52
:1048100023F04003C7F8B0307B681B681433D7F827
:10482000B020FA66BB66B96EFA6E41E800237B667B
:104830007B6E002BE3D17B68202283F83E207B68CF
:1048400000221A637B681B680C33FB64FB6C53E823
:10485000003FBB64BB6C23F01003C7F8AC307B682F
:104860001B680C33D7F8AC20BA657B65796DBA6DDF
:1048700041E800233B653B6D002BE3D17B689B6BDC
:104880001846FCF7E1FF7B689A8D7B68DB8D9BB255
:10489000D31A9BB21946786800F0B6F899E000BFC9
:1048A000374C08087B689A8D7B68DB8D9BB2D31AE6
:1048B000A7F8CE307B68DB8D9BB2002B00F08B809D
:1048C000B7F8CE30002B00F086807B681B680C3375
:1048D000BB63BB6B53E8003F7B637B6B23F490733C
:1048E000C7F8C8307B681B680C33D7F8C8207A64D7
:1048F0003B64396C7A6C41E80023FB63FB6B002B53
:10490000E3D17B681B6814337B627B6A53E8003F0A
:104910003B623B6A23F00103C7F8C4307B681B6825
:104920001433D7F8C4203A63FB62F96A3A6B41E862
:104930000023BB62BB6A002BE3D17B68202283F893
:104940003E207B6800221A637B681B680C333B6146
:104950003B6953E8003FFB60FB6823F01003C7F896
:10496000C0307B681B680C33D7F8C020FA61BB618C
:10497000B969FA6941E800237B617B69002BE3D1C7
:10498000B7F8CE301946786800F03EF823E0D7F843
:10499000E43003F08003002B09D0D7F8E03003F0B7
:1049A0008003002B03D0786800F059F914E0D7F8A1
:1049B000E43003F04003002B0ED0D7F8E03003F0D2
:1049C0004003002B08D0786800F099F904E000BF9C
:1049D00002E000BF00E000BFE837BD4680BD00BF79
:1049E00080B483B000AF786000BF0C37BD465DF87F
:1049F000047B704780B483B000AF786000BF0C3791
:104A0000BD465DF8047B704780B483B000AF78602A
:104A10000B467B8000BF0C37BD465DF8047B7047BA
:104A200080B590B000AFF860B9603B601346FB7191
:104A300050E0BB6CB3F1FF3F4CD0BB6C002B07D0F8
:104A4000FCF7F0FD02463B68D31ABA6C9A4241D299
:104A5000FB681B680C33BB62BB6A53E8003F7B6298
:104A60007B6A23F4D073FB63FB681B680C33FA6B1F
:104A70007A633B63396B7A6B41E80023FB62FB6A24
:104A8000002BE5D1FB681B6814337B617B6953E81D
:104A9000003F3B613B6923F00103BB63FB681B687C
:104AA0001433BA6B3A62FB61F9693A6A41E8002350
:104AB000BB61BB69002BE5D1FB68202283F83D2058
:104AC000FB68202283F83E20FB68002283F83C200C
:104AD00003230FE0FB681B681A68BB681340BA68C1
:104AE0009A420CBF01230023DBB21A46FB799A429B
:104AF0009FD0002318464037BD4680BD80B485B0A6
:104B000000AFF860B9601346FB80FB68BA689A6230
:104B1000FB68FA889A85FB68FA88DA85FB680022C8
:104B20001A64FB68222283F83E20FB68002283F887
:104B30003C20FB681B68DA68FB681B6842F48072E3
:104B4000DA60FB681B685A69FB681B6842F0010267
:104B50005A61FB681B68DA68FB681B6842F0200238
:104B6000DA60002318461437BD465DF8047B7047B1
:104B700080B495B000AF78607B681B680C337B63B2
:104B80007B6B53E8003F3B633B6B23F49073FB6408
:104B90007B681B680C33FA6C3A64FB63F96B3A6C04
:104BA00041E80023BB63BB6B002BE5D17B681B682E
:104BB00014333B623B6A53E8003FFB61FB6923F01F
:104BC0000103BB647B681B681433BA6CFA62BB6276
:104BD000B96AFA6A41E800237B627B6A002BE5D15F
:104BE0007B681B6B012B19D17B681B680C33FB6046
:104BF000FB6853E8003FBB60BB6823F010037B6495
:104C00007B681B680C337A6CBA617B617969BA691D
:104C100041E800233B613B69002BE5D17B68202202
:104C200083F83E207B6800221A6300BF5437BD46DC
:104C30005DF8047B704780B584B000AF78607B6816
:104C40009B6BFB60FB680022DA85FB680022DA843C
:104C5000F868FFF7CFFE00BF1037BD4680BD80B4B7
:104C600085B000AF78607B6893F83D30DBB2212BD4
:104C70003ED17B689B68B3F5805F14D17B681B696C
:104C8000002B10D17B681B6AFB60FB681B881A46EF
:104C90007B681B68C2F308025A607B681B6A9A1C17
:104CA0007B681A6208E07B681B6A591C7A6811628B
:104CB0001A787B681B685A607B68DB8C9BB2013B6F
:104CC0009BB27A681946D184002B0FD17B681B6890
:104CD000DA687B681B6822F08002DA607B681B68F8
:104CE000DA687B681B6842F04002DA60002300E06B
:104CF000022318461437BD465DF8047B704780B523
:104D000082B000AF78607B681B68DA687B681B68DC
:104D100022F04002DA607B68202283F83D20786828
:104D2000FFF75EFE002318460837BD4680BD80B5FC
:104D30008CB000AF78607B6893F83E30DBB2222BFA
:104D400040F0AB807B689B68B3F5805F17D17B68D0
:104D50001B69002B13D10023FB627B689B6ABB623B
:104D60007B681B685B689BB2C3F308039AB2BB6A9B
:104D70001A807B689B6A9A1C7B689A6226E07B6833
:104D80009B6AFB620023BB627B689B68B3F5805F14
:104D900007D07B689B68002B0AD17B681B69002BBE
:104DA00006D17B681B685B68DAB2FB6A1A7008E0A0
:104DB0007B681B685B68DBB203F07F03DAB2FB6AD7
:104DC0001A707B689B6A5A1C7B689A627B68DB8DD1
:104DD0009BB2013B9BB27A681946D185002B5AD110
:104DE0007B681B68DA687B681B6822F02002DA6047
:104DF0007B681B68DA687B681B6822F48072DA6063
:104E00007B681B685A697B681B6822F001025A6143
:104E10007B68202283F83E207B681B6B012B35D1F9
:104E20007B6800221A637B681B680C337B617B699B
:104E300053E8003F3B613B6923F010037B627B68D2
:104E40001B680C337A6A3A62FB61F9693A6A41E895
:104E50000023BB61BB69002BE5D17B681B681B6825
:104E600003F01003102B0AD10023FB607B681B6842
:104E70001B68FB607B681B685B68FB60FB687B688A
:104E80009B8D19467868FFF7BFFD02E07868FCF754
:104E900041FB002302E0002300E0022318463037E4
:104EA000BD4680BD2DE9F04F9FB000AFF866FB6EA8
:104EB0001B681B6923F44050FB6ED968FB6E1A68AF
:104EC00040EA01031361FB6E9A68FB6E1B691A438B
:104ED000FB6E5B691A43FB6EDB6913433B67FB6E3A
:104EE0001B68DB6823F4164121F00C01FB6E1A6885
:104EF0003B6F0B43D360FB6E1B685B6923F4407010
:104F0000FB6E9969FB6E1A6840EA01035361FB6E00
:104F10001A68C54B9A4204D0FB6E1A68C34B9A427A
:104F200003D1FEF7F7FC786702E0FEF7DFFC786755
:104F3000FB6EDB69B3F5004F40F0B6807B6F1C461B
:104F40004FF0000522462B46911839645B417B6483
:104F5000D7E91023121945EB03034FF000004FF07F
:104F60000001D90041EA5271D00002460B461119E6
:104F700039666B417B66FB6E5B681A464FF0000337
:104F80009118B9635B41FB63D7E90E23D7E9180198
:104F9000FBF776F902460B46A54BA3FB02235B0900
:104FA0001E017B6F1C464FF0000522462B469118D0
:104FB00039635B417B63D7E90C23121945EB03038B
:104FC0004FF000004FF00001D90041EA5271D000CB
:104FD00002460B461119B9656B41FB65FB6E5B68B8
:104FE0001A464FF000039118B9625B41FB62D7E9A2
:104FF0000A23D7E91601FBF743F902460B468C4B0F
:10500000A3FB02135B09642101FB03F3D31ADB004A
:105010003233874AA2FB03235B095B0003F4F87376
:105020001E447B6F18464FF0000102460B46941851
:105030003C625B417B62D7E90823121841EB030312
:105040004FF000044FF00005DD0045EA5275D40032
:1050500022462B4614183C654B417B65FB6E5B6812
:105060001A464FF000039118B9615B41FB61D7E923
:105070000623D7E91401FBF703F902460B466C4BF4
:10508000A3FB02135B09642101FB03F3D31ADB00CA
:105090003233674AA2FB03235B0903F00702FB6E6E
:1050A0001B6832449A60B9E07B6F1C464FF00005E4
:1050B00022462B46911839615B417B61D7E9042375
:1050C000121945EB03034FF000004FF00001D90027
:1050D00041EA5271D00002460B4612EB040843EB42
:1050E0000509FB6E5B6818464FF000014FF00002A7
:1050F0004FF000038B0043EA90738200404649461C
:10510000FBF7BEF802460B46494BA3FB02235B09A3
:105110001E017B6F18464FF0000102460B469418A3
:10512000BC605B41FB60D7E90223121841EB03032B
:105130004FF000044FF00005DD0045EA5275D40041
:1051400022462B461418BC644B41FB64FB6E5B6823
:1051500018464FF000014FF000024FF000038B00A3
:1051600043EA90738200D7E91201FBF789F80246FF
:105170000B462F4BA3FB02135B09642101FB03F3D6
:10518000D31A1B0132332A4AA2FB03235B0903F023
:10519000F0031E447B6F18464FF0000102460B4699
:1051A00094183C605B417B60D7E90023121841EB07
:1051B00003034FF000044FF00005DD0045EA52758F
:1051C000D40022462B4612EB000A43EB010BFB6E88
:1051D0005B6818464FF000014FF000024FF00003EB
:1051E0008B0043EA9073820050465946FBF748F81B
:1051F00002460B460E4BA3FB02135B09642101FB25
:1052000003F3D31A1B013233094AA2FB03235B09C0
:1052100003F00F02FB6E1B6832449A6000BF7C37BC
:10522000BD46BDE8F08F00BF0010014000140140F2
:105230001F85EB51B0B58EB004AF0021002006F001
:1052400043FF2D4B00221A602C4B00221A602C4B7E
:1052500000221A602B4B02932B4B019300230093E7
:10526000274B264A2449294807F0BCFC274807F069
:1052700073FE264B93F831309B0803F00103DBB239
:10528000002B03D0214807F077FE02E01F4807F00B
:10529000DFFE1F491D4807F075FF00233B62002316
:1052A0007B6207F120030121184600F099FD0346B7
:1052B000184A1360184B154A1A60164B1B68164A99
:1052C0005360164B3C1D1D460FCD0FC495E80700DB
:1052D00084E807003B1D1049184600F084FC034693
:1052E0000F4A136009480FF0F5FF0E4814F0BAFAA0
:1052F00000BF2837BD46B0BD608100206C81002012
:1053000074810020D9BF0808755908082881002039
:10531000595A0808280300201C81002038B20908C7
:10532000708100200CB2090880B58EB000AF7860A3
:1053300007F1240300221A605A609A60DA601A6149
:105340007B681B684A4A934240F08D8000233B6291
:10535000484B1B6B474A43F000731363454B1B6B71
:1053600003F000733B623B6A0023FB61414B1B6B04
:10537000404A43F0806313633E4B1B6B03F0806332
:10538000FB61FB690023BB613A4B1B6B394A43F05D
:1053900000631363374B1B6B03F00063BB61BB6996
:1053A00000237B61334B1B6B324A43F004031363CE
:1053B000304B1B6B03F004037B617B6900233B6173
:1053C0002C4B1B6B2B4A43F001031363294B1B6BC4
:1053D00003F001033B613B690023FB60254B1B6B22
:1053E000244A43F040031363224B1B6B03F040033A
:1053F000FB60FB6832237B620223BB620023FB62FB
:1054000003233B630B237B6307F1240319461A48EC
:10541000FDF752FC86237B620223BB620023FB6202
:1054200003233B630B237B6307F1240319461348D3
:10543000FDF742FC4FF4D0437B620223BB620023A2
:10544000FB6203233B630B237B6307F124031946B1
:105450000B48FDF731FC002205213D20FCF7CAF97D
:105460003D20FCF7E3F900BF3837BD4680BD00BFE3
:105470000080024000380240000802400000024064
:105480000018024080B582B000AF7860044B1B6802
:10549000184600F025FD00BF0837BD4680BD00BF9F
:1054A0002C030020B0B590B000AF78600023BB6340
:1054B000664B674A1A60654B00225A60634B0022B4
:1054C0009A60624B4FF40062DA60604B01221A82EC
:1054D000002387F83030802387F83130E12387F8C4
:1054E0003230002387F83330002387F8343000232C
:1054F00087F83530554A07F130035361534B012289
:105500009A61524B0022DA61504B4FF400021A624A
:105510004E48FCF72BFA034687F83F3097F83F30A8
:10552000002B08D17B6893F8313043F00403DAB2E2
:105530007B6883F831200423464A47494348FCF7F7
:10554000B1FB0423454A46494048FCF714FC7B68FC
:10555000062283F830203D4B5B691A787B6883F81C
:105560002A203A4B5B695A787B6883F82B20374BAB
:105570005B699A787B6883F82C20344B5B69DA7816
:105580007B6883F82D20314B5B691A797B6883F83F
:105590002E202E4B5B695A797B6883F82F207B681D
:1055A00040F2DC521A857B6893F8313043F00A03ED
:1055B000DAB27B6883F831200023BB620023FB62F0
:1055C00007F128030121184600F00AFC0346254A8A
:1055D0001360254B07F10C041D460FCD0FC495E851
:1055E000070084E8070007F10C037968184600F00B
:1055F000FAFA03461D4A13601448FCF7E4FE07F16B
:1056000038031A4611211148FCF70FFEBB6B43F01B
:105610000303BB63BB6B1A4611210C48FCF76DFEFC
:1056200007F138031A4612210848FCF7FEFDBB6B50
:1056300043F02003BB63BB6B1A4612210348FCF7FF
:105640005CFE00BF4037BD46B0BD00BF4C9A002095
:1056500000800240949A002078810020F881002088
:10566000C89900202C0300205CB20908489A002049
:1056700080B58AB000AF786039604B4BDB6A9B68BD
:10568000FB6100237B6100233B610023FB6000235F
:10569000BB60454BDB6ABB6100233B613B683B62FF
:1056A0005AE0BB691B68002B03DAF82387F8273020
:1056B0005CE03B6A5B89FB600023BB602FE0FA691A
:1056C0003B69D0183B6A5A68BB68D1183B69C3F57F
:1056D000BE6304331A4613F04FFFBB69DB68BB613E
:1056E000BB691B68002B03DAF82387F827303DE0FD
:1056F000BB699B68FB613A69FB681344A3F2F453EE
:10570000FB60BA683B69D31A03F2F453BB607A6951
:105710003B69D31A03F2F4537B6100233B61FA68BF
:105720003B69134440F2F4529342C8D8FA693B698A
:10573000D0183B6A5A68BB681344FA68194613F0DC
:105740001BFF3A69FB6813443B617A69FB681344A9
:105750007B613B6A1B683B623B6A002BA1D1796984
:105760001148FCF775FB002387F827300E4B1B68A8
:1057700003F5805314331B6803F02003002B0DD076
:10578000094B1B6803F58053143320221A60064B23
:105790001B6803F58053043300221A6097F9273001
:1057A00018462837BD4680BD4C9A002080B58CB085
:1057B00000AF78600023FB620023BB620023FB8103
:1057C0000023FB610023BB6100237B6100233B615D
:1057D0004F48FCF727FC0346002B01D0002392E042
:1057E0004B4BDB6BFB814A4B1B6C7B62FB89002BB9
:1057F00007D0FB894FF4C1721946002007F08CFDD9
:10580000F862FB6A002B4BD0414B1B6B3B620023C1
:10581000FB61FB6ABB6240E0BB6A5B897B61002382
:10582000BB6121E0BB6A5A68BB69D0187A6AFB6920
:10583000D118FB69C3F5BE6304331A4613F09CFE0E
:105840003B6ADB683B623B6A9B687B62FA697B6907
:105850001344A3F2F4537B61BA69FB69D31A03F2D0
:10586000F453BB610023FB617A69FB69134440F286
:10587000F4529342D6D8BB6A5A68BB69D0187A6A88
:10588000FB6913447A69194613F076FEFA697B695D
:105890001344FB61BB6A1B68BB62BB6A002BBBD1B4
:1058A0001B4B1B6B3B6200233B610BE03B6A1B689D
:1058B00043F000423B6A1A603B6ADB683B623B692B
:1058C00001333B61124B9B6B3A699A42EED3104B0A
:1058D00000229A630E4B1B6803F5805314331B6838
:1058E00003F08003002B0DD0094B1B6803F5805398
:1058F000143380221A60064B1B6803F5805308336B
:1059000000221A60FB6A18463037BD4680BD00BFD2
:105910004C9A002080B584B000AF78607B68FB6053
:10592000124B1B684FF0FF31184600F08BFA03460C
:10593000002BF5D10E4813F085FDF868FFF736FF10
:10594000B860BB68002B0AD0FB681B69F968B868AF
:1059500098470346002B02D0B86807F0F3FF0448CD
:1059600013F07FFDBB68002BE4D1D9E72C030020A6
:10597000A4B2002080B582B000AF78607B68002BB5
:1059800006D10E4B40F237220D490E4813F0CEFEE1
:105990007B68732283F832207B68742283F833207B
:1059A0007B68094A5A617B68084A9A617868FFF700
:1059B00079FD002318460837BD4680BD78B2090836
:1059C00094B20908A4B20908A1710908715608081F
:1059D00080B500AFFBF726FE0346184680BD0000E9
:1059E00080B584B000AF78600023BB607B68FB604B
:1059F00007F108031A4601211648FCF716FCBB689C
:105A000003F00403BB60FB681B6893F8313003F0BC
:105A10000403002B08D1BB68002B05D0FB681B6872
:105A2000184607F047FB11E0FB681B6893F831301C
:105A30009B0803F00103DBB2002B07D0BB68002BEF
:105A400004D1FB681B68184607F06CFBC82000F007
:105A500016F9CDE74C9A002080B584B000AF78608D
:105A60000023FB600023BB607B6893F831309B0808
:105A700003F00103DBB2002B5DD0344B5B68002BDD
:105A80003FD04FF4805200213048FCF736FCFBF742
:105A9000C9FD0346FB6007F108031A4601212B48A4
:105AA000FCF7C3FBFBF7BEFD0246FB68D31AB3F558
:105AB0007A7F28D8BB6803F02003002BEBD007F1D6
:105AC00008031A4610212148FCF7AFFBBB6803F01E
:105AD0000403002B04D01D4B4FF40062DA6002E097
